{
  "_format": "hh-sol-artifact-1",
  "contractName": "ETHPool",
  "sourceName": "contracts/ETHPool.sol",
  "abi": [
    {
      "inputs": [
        {
          "internalType": "address",
          "name": "team",
          "type": "address"
        }
      ],
      "stateMutability": "payable",
      "type": "constructor"
    },
    {
      "anonymous": false,
      "inputs": [
        {
          "indexed": false,
          "internalType": "address",
          "name": "",
          "type": "address"
        },
        {
          "indexed": false,
          "internalType": "uint256",
          "name": "",
          "type": "uint256"
        }
      ],
      "name": "Deposited",
      "type": "event"
    },
    {
      "inputs": [],
      "name": "Team",
      "outputs": [
        {
          "internalType": "address",
          "name": "",
          "type": "address"
        }
      ],
      "stateMutability": "view",
      "type": "function"
    },
    {
      "inputs": [],
      "name": "depositRewards",
      "outputs": [],
      "stateMutability": "payable",
      "type": "function"
    },
    {
      "inputs": [],
      "name": "enrollUser",
      "outputs": [],
      "stateMutability": "payable",
      "type": "function"
    },
    {
      "inputs": [
        {
          "internalType": "uint256",
          "name": "",
          "type": "uint256"
        }
      ],
      "name": "poolMembers",
      "outputs": [
        {
          "internalType": "address",
          "name": "",
          "type": "address"
        }
      ],
      "stateMutability": "view",
      "type": "function"
    },
    {
      "inputs": [],
      "name": "reward",
      "outputs": [
        {
          "internalType": "uint256",
          "name": "",
          "type": "uint256"
        }
      ],
      "stateMutability": "view",
      "type": "function"
    },
    {
      "inputs": [
        {
          "internalType": "address",
          "name": "",
          "type": "address"
        }
      ],
      "name": "users",
      "outputs": [
        {
          "internalType": "uint256",
          "name": "balance",
          "type": "uint256"
        },
        {
          "internalType": "uint256",
          "name": "percentage",
          "type": "uint256"
        },
        {
          "internalType": "bool",
          "name": "inPool",
          "type": "bool"
        }
      ],
      "stateMutability": "view",
      "type": "function"
    },
    {
      "inputs": [],
      "name": "withdraw",
      "outputs": [],
      "stateMutability": "payable",
      "type": "function"
    },
    {
      "stateMutability": "payable",
      "type": "receive"
    }
  ],
  "bytecode": "0x60806040526040516200149a3803806200149a83398181016040528101906200002991906200019e565b620000746040518060400160405280601081526020017f455448506f6f6c206465706c6f79656400000000000000000000000000000000815250620000bb60201b62000cba1760201c565b806000806101000a81548173ffffffffffffffffffffffffffffffffffffffff021916908373ffffffffffffffffffffffffffffffffffffffff16021790555050620002e0565b6200015b81604051602401620000d291906200020b565b6040516020818303038152906040527f41304fac000000000000000000000000000000000000000000000000000000007bffffffffffffffffffffffffffffffffffffffffffffffffffffffff19166020820180517bffffffffffffffffffffffffffffffffffffffffffffffffffffffff83818316178352505050506200015e60201b60201c565b50565b60008151905060006a636f6e736f6c652e6c6f679050602083016000808483855afa5050505050565b6000815190506200019881620002c6565b92915050565b600060208284031215620001b157600080fd5b6000620001c18482850162000187565b91505092915050565b6000620001d7826200022f565b620001e381856200023a565b9350620001f58185602086016200027f565b6200020081620002b5565b840191505092915050565b60006020820190508181036000830152620002278184620001ca565b905092915050565b600081519050919050565b600082825260208201905092915050565b600062000258826200025f565b9050919050565b600073ffffffffffffffffffffffffffffffffffffffff82169050919050565b60005b838110156200029f57808201518184015260208101905062000282565b83811115620002af576000848401525b50505050565b6000601f19601f8301169050919050565b620002d1816200024b565b8114620002dd57600080fd5b50565b6111aa80620002f06000396000f3fe6080604052600436106100745760003560e01c8063639e01dd1161004e578063639e01dd146100f85780636855cbb8146101235780638704b0e714610160578063a87430ba1461016a576100b4565b8063152111f7146100b9578063228cb733146100c35780633ccfd60b146100ee576100b4565b366100b4577f2da466a7b24304f47e87fa2e1e5a81b9831ce54fec19055ce277ca2f39ba42c433346040516100aa929190610e79565b60405180910390a1005b600080fd5b6100c16101a9565b005b3480156100cf57600080fd5b506100d861046b565b6040516100e59190610ec4565b60405180910390f35b6100f6610471565b005b34801561010457600080fd5b5061010d6107f3565b60405161011a9190610e5e565b60405180910390f35b34801561012f57600080fd5b5061014a60048036038101906101459190610dcf565b610817565b6040516101579190610e5e565b60405180910390f35b610168610856565b005b34801561017657600080fd5b50610191600480360381019061018c9190610da6565b610c83565b6040516101a093929190610edf565b60405180910390f35b60008054906101000a900473ffffffffffffffffffffffffffffffffffffffff1673ffffffffffffffffffffffffffffffffffffffff163373ffffffffffffffffffffffffffffffffffffffff161461020157600080fd5b60005b60018054905081101561046857600115156002600060018481548110610253577f4e487b7100000000000000000000000000000000000000000000000000000000600052603260045260246000fd5b9060005260206000200160009054906101000a900473ffffffffffffffffffffffffffffffffffffffff1673ffffffffffffffffffffffffffffffffffffffff1673ffffffffffffffffffffffffffffffffffffffff16815260200190815260200160002060020160009054906101000a900460ff16151514156104555760646002600060018481548110610311577f4e487b7100000000000000000000000000000000000000000000000000000000600052603260045260246000fd5b9060005260206000200160009054906101000a900473ffffffffffffffffffffffffffffffffffffffff1673ffffffffffffffffffffffffffffffffffffffff1673ffffffffffffffffffffffffffffffffffffffff16815260200190815260200160002060010154346103859190610fb9565b61038f9190610f88565b60038190555060035460026000600184815481106103d6577f4e487b7100000000000000000000000000000000000000000000000000000000600052603260045260246000fd5b9060005260206000200160009054906101000a900473ffffffffffffffffffffffffffffffffffffffff1673ffffffffffffffffffffffffffffffffffffffff1673ffffffffffffffffffffffffffffffffffffffff168152602001908152602001600020600001600082825461044d9190610f32565b925050819055505b80806104609061108e565b915050610204565b50565b60035481565b34600260003373ffffffffffffffffffffffffffffffffffffffff1673ffffffffffffffffffffffffffffffffffffffff1681526020019081526020016000206000015410156104c057600080fd5b3373ffffffffffffffffffffffffffffffffffffffff166108fc600260003373ffffffffffffffffffffffffffffffffffffffff1673ffffffffffffffffffffffffffffffffffffffff168152602001908152602001600020600001549081150290604051600060405180830381858888f19350505050158015610548573d6000803e3d6000fd5b506000600260003373ffffffffffffffffffffffffffffffffffffffff1673ffffffffffffffffffffffffffffffffffffffff16815260200190815260200160002060020160006101000a81548160ff02191690831515021790555060005b6001805490508110156107f0576001151560026000600184815481106105f6577f4e487b7100000000000000000000000000000000000000000000000000000000600052603260045260246000fd5b9060005260206000200160009054906101000a900473ffffffffffffffffffffffffffffffffffffffff1673ffffffffffffffffffffffffffffffffffffffff1673ffffffffffffffffffffffffffffffffffffffff16815260200190815260200160002060020160009054906101000a900460ff16151514156107dd5747606460026000600185815481106106b5577f4e487b7100000000000000000000000000000000000000000000000000000000600052603260045260246000fd5b9060005260206000200160009054906101000a900473ffffffffffffffffffffffffffffffffffffffff1673ffffffffffffffffffffffffffffffffffffffff1673ffffffffffffffffffffffffffffffffffffffff168152602001908152602001600020600001546107289190610fb9565b6107329190610f88565b6002600060018481548110610770577f4e487b7100000000000000000000000000000000000000000000000000000000600052603260045260246000fd5b9060005260206000200160009054906101000a900473ffffffffffffffffffffffffffffffffffffffff1673ffffffffffffffffffffffffffffffffffffffff1673ffffffffffffffffffffffffffffffffffffffff168152602001908152602001600020600101819055505b80806107e89061108e565b9150506105a7565b50565b60008054906101000a900473ffffffffffffffffffffffffffffffffffffffff1681565b6001818154811061082757600080fd5b906000526020600020016000915054906101000a900473ffffffffffffffffffffffffffffffffffffffff1681565b34600260003373ffffffffffffffffffffffffffffffffffffffff1673ffffffffffffffffffffffffffffffffffffffff16815260200190815260200160002060000181905550476064600260003373ffffffffffffffffffffffffffffffffffffffff1673ffffffffffffffffffffffffffffffffffffffff168152602001908152602001600020600001546108ed9190610fb9565b6108f79190610f88565b600260003373ffffffffffffffffffffffffffffffffffffffff1673ffffffffffffffffffffffffffffffffffffffff168152602001908152602001600020600101819055506001600260003373ffffffffffffffffffffffffffffffffffffffff1673ffffffffffffffffffffffffffffffffffffffff16815260200190815260200160002060020160006101000a81548160ff0219169083151502179055506001339080600181540180825580915050600190039060005260206000200160009091909190916101000a81548173ffffffffffffffffffffffffffffffffffffffff021916908373ffffffffffffffffffffffffffffffffffffffff16021790555060005b600180549050811015610c4757600115156002600060018481548110610a4d577f4e487b7100000000000000000000000000000000000000000000000000000000600052603260045260246000fd5b9060005260206000200160009054906101000a900473ffffffffffffffffffffffffffffffffffffffff1673ffffffffffffffffffffffffffffffffffffffff1673ffffffffffffffffffffffffffffffffffffffff16815260200190815260200160002060020160009054906101000a900460ff1615151415610c34574760646002600060018581548110610b0c577f4e487b7100000000000000000000000000000000000000000000000000000000600052603260045260246000fd5b9060005260206000200160009054906101000a900473ffffffffffffffffffffffffffffffffffffffff1673ffffffffffffffffffffffffffffffffffffffff1673ffffffffffffffffffffffffffffffffffffffff16815260200190815260200160002060000154610b7f9190610fb9565b610b899190610f88565b6002600060018481548110610bc7577f4e487b7100000000000000000000000000000000000000000000000000000000600052603260045260246000fd5b9060005260206000200160009054906101000a900473ffffffffffffffffffffffffffffffffffffffff1673ffffffffffffffffffffffffffffffffffffffff1673ffffffffffffffffffffffffffffffffffffffff168152602001908152602001600020600101819055505b8080610c3f9061108e565b9150506109fe565b507f2da466a7b24304f47e87fa2e1e5a81b9831ce54fec19055ce277ca2f39ba42c43334604051610c79929190610e79565b60405180910390a1565b60026020528060005260406000206000915090508060000154908060010154908060020160009054906101000a900460ff16905083565b610d5081604051602401610cce9190610ea2565b6040516020818303038152906040527f41304fac000000000000000000000000000000000000000000000000000000007bffffffffffffffffffffffffffffffffffffffffffffffffffffffff19166020820180517bffffffffffffffffffffffffffffffffffffffffffffffffffffffff8381831617835250505050610d53565b50565b60008151905060006a636f6e736f6c652e6c6f679050602083016000808483855afa5050505050565b600081359050610d8b81611146565b92915050565b600081359050610da08161115d565b92915050565b600060208284031215610db857600080fd5b6000610dc684828501610d7c565b91505092915050565b600060208284031215610de157600080fd5b6000610def84828501610d91565b91505092915050565b610e0181611013565b82525050565b610e1081611025565b82525050565b6000610e2182610f16565b610e2b8185610f21565b9350610e3b81856020860161105b565b610e4481611135565b840191505092915050565b610e5881611051565b82525050565b6000602082019050610e736000830184610df8565b92915050565b6000604082019050610e8e6000830185610df8565b610e9b6020830184610e4f565b9392505050565b60006020820190508181036000830152610ebc8184610e16565b905092915050565b6000602082019050610ed96000830184610e4f565b92915050565b6000606082019050610ef46000830186610e4f565b610f016020830185610e4f565b610f0e6040830184610e07565b949350505050565b600081519050919050565b600082825260208201905092915050565b6000610f3d82611051565b9150610f4883611051565b9250827fffffffffffffffffffffffffffffffffffffffffffffffffffffffffffffffff03821115610f7d57610f7c6110d7565b5b828201905092915050565b6000610f9382611051565b9150610f9e83611051565b925082610fae57610fad611106565b5b828204905092915050565b6000610fc482611051565b9150610fcf83611051565b9250817fffffffffffffffffffffffffffffffffffffffffffffffffffffffffffffffff0483118215151615611008576110076110d7565b5b828202905092915050565b600061101e82611031565b9050919050565b60008115159050919050565b600073ffffffffffffffffffffffffffffffffffffffff82169050919050565b6000819050919050565b60005b8381101561107957808201518184015260208101905061105e565b83811115611088576000848401525b50505050565b600061109982611051565b91507fffffffffffffffffffffffffffffffffffffffffffffffffffffffffffffffff8214156110cc576110cb6110d7565b5b600182019050919050565b7f4e487b7100000000000000000000000000000000000000000000000000000000600052601160045260246000fd5b7f4e487b7100000000000000000000000000000000000000000000000000000000600052601260045260246000fd5b6000601f19601f8301169050919050565b61114f81611013565b811461115a57600080fd5b50565b61116681611051565b811461117157600080fd5b5056fea26469706673582212203745285db71bd32d50b35062a4a257ba60a85d1f6ec3acf39082d64e0fedc03364736f6c63430008040033",
  "linkReferences": {},
  "deployedLinkReferences": {}
}